A000000000000DBBAACDEEDABBBECBCDCEAEACBCD
B000000000000BCDDBBAACDEEDABBBECBCDCEAEAC
C000000000000BDBBAACDEEDABECBCDCEAEACBCDB
D000000000000AACDEEDABBBECBCDCEAEACBCDDBB
A201713161005DBBBCCBEEDBBEBECBCDCEAEACBCD                                                                        
C201713161058BDBBBBCCEEDABCEBCDCDAEACBCED                                                                        
B201713161026BEDABBBACDEEDBBBBEEACDCEAEAC                                                                        
D201613161058CAEDDEDBBEBECBCDCCAEACBCDDBB                                                                        
D201713161013CACDEEDABBBAEBCDCDAEACACADBB                                                                        
B201713161015ACADBDBBCCEEDABABAEBCDCEAEAC                                                                        
B201713161037BCDDBBEACDDEDEBBBCEBCDCEAAAC                                                                        
D201713161036BADBDEDABDADEBCDCEAEACACDBEB                                                                        
C201713161048BDBBAACCDEDABAADCDCEADACBCBD    
C201713161048BDBBAACCDEDABAADCDCEADACBCBD                                                                          
A201713161022DCDCBCDEEDCBBBCCBCDCEAAACACD                                                                        
C201613161047BDBBABCDDEDAAEEACDCEAEACACDB                                                                        
B201713161065BCBDCDDCECEEDBEDBDEADDCEACAC                                                                        
B201713161007BCDCBDCACDDEDBBCBCEBCDCEADAC                                                                        
A201513161076DBDBACCDEDBBBBCCACDCEADACBCB                                                                        
A201713161067DCBBACCEEDEBDBECBCDCEAEACABB                                                                        
C201513161053ADBDBCCCEEDBBEEBCDCEAEACDCDD                                                                        
A201613161080DBBAACDDEDBBDBEEBCDBDAEACBCB                                                                        
D201713161014EACBEEDCBDBAEBCDCEAEACBCBDBB                                                                        
B201713161033BCDDBBEECDECAABDBCCCCDCEAEBB                                                                        
A201713161035DBDDAECDEDBBEBDCBCDC AEACAEA                                                                        
C201713161053BABBAACDEEDBAAABCDCEAEDCBCDA                                                                        
B201613161040ACDDBDEACBEEDBBCACEBCDBEAEAC                                                                        
D201713161017BACCEDDABDBECBCDCEAEADBADABB                                                                        
C201613161064BDBBAACDEEDABDCBCDCEAEACBCBD                                                                        
D201513161040BBCDEEDABABDCBCDBEAEACBCADBB 
A201613162810DEBCCCDEEDCBBBACDDACEADACBCD                                                                        
B201513161074DCADBBBDCEEDBBBDBCEBCDCEBEAC                                                                        
C201713161069BABDBCCCEEDBBEEBCDCEAEACBCBE                                                                        
C201613161030BDCBEACCEEDABAEBCDCEAEACBAEC                                                                        
C201613162063BDBBCACCEEDABACBCDCEAEACBEDE                                                                        
A201713161059ABBACCCEEDBBBBBCBCDCEAEACBCB                                                                        
B201613161036BCADCBBACDEEDEBAAABBCDCCAEAC                                                                        
D201713161043AACCEEDBBEBBCBCDCEAEACBCBDBD                                                                        
A201713161046DDCBACDAEDBBEBAACCDCEAAEDACB                                                                        
C201713161044BDBBBACDEEDBBCE CDCEAEACBCEC                                                                        
D201713161024AACDEEDABDBBCBCDCEAEADBCDACB                                                                        
D201713161049EACDDEDBBBBCEBCDCEAEECACDDCB                                                                        
D201713161032BAECEEDBBEBEBECDCEAEACBCDDCB                                                                        
B201713161901BCADBDAACDEEEABEBECBCDBEAEAC                                                                        
A201713161029DBBABCAEEDABEBCEBCDCEAEACACD                                                                        
B201513161063BCDDBDBACCDEDBBBAECBCDCEAEEC                                                                        
A201713161071DBCCACDDEDBBCBECBCDCEAEACBCB                                                                        
D201713161068EACCEEDABEBDCBCDCEAEDCBCDDBB  E                                                                     
C201613161051BABBCACDAEDBBEABEDCEAAACACDD                                                                        
C201713161072BDBBCACCEEDAADCBCDCEEEADBCDA                                                                        
D201713161056BACDDEDBBABEEBCDCEAEACACDDBB                                                                        
B201713161023ACDDBBABEDEEDBACBDCBCDCEAAAC                                                                        
C201713161050BEBBBADDEEDEBBCBCDCEAEBBBCDA                                                                        
A201713161030DBBAACDEECABEBECBCDCEAEACBCB                                                                        
B201713161021BCDDBBAACDEEDABEBECBCDBEAEAC 
C201713161040BDCBCACCEEDEAADBCDCEACACBCBE                                                                        
D201713161051BBCDEEDABCBACBCDCEAAACBCAABB                                                                        
B201713161041BECDBBBACCEDDBBABCCBCDCEAEAC                                                                        
C201713161016BACBBBCDEEDBBCEACDCEACECBCDE                                                                        
D201713161062CACCEEDBBDBECBCDCEAEABACDDBD                                                                        
B201713161004BCDDBBBACDEEDABABCEECDCEAEAC                                                                        
A201713161061DADBACCEBDBBEBACBCDCEAEACACD                                                                        
A201613161032DBBCCCBEEDABABACBCDCEAEECBCA                                                                        
A201713161054ABB ECCD DABEBECBCDBDAEACACB                                                                        
B201713161042BCDDBBACCCEEDBBEBDCBCDCEAEAC                                                                        
A201713161003DBBCACCEEDBBEBEEBCDCEAEACBCD                                                                        
C201713161807BDBBAACBEEDABAEBCDCEAEACBCDC                                                                        
C201613161007BDBBAACDEEDBBCCBEDCEAEACBCAC                                                                        
B201713161008AEDABBABCCECDBDABDEBCDCEAEAC                                                                        
D201713161038EAEDEEDABEBCEBCDCEACACBCDDBB                                                                        
A201713161060DBBEBCCEEDEBEBEEBCDCEAEEEACD                                                                        
B201713161070ACADBBAACAEEDBBDBDCBCDCEAAAC                                                                        
D201713161027AACDDBDBCCAEEDCDDEAEAABCEECD                                                                        
D201713161066CACDEEDBBDBCCBCDCEAEACBCBDBD                                                                        
C201713161057BDBBBACCEBDCBACBCDCDAEACDEDC                                                                        
D201713161034CACDEEDBBCBEBBCDCEAEACACDACB                                                                        
A201713161052DBDEACDDEDCBEBEEBCDCEAEACACD                                                                        
C201713161002BABBCADCEEDABEEACDCEADAAACDD  
B201613162069DDBDCDBACCDEDBBABBEACDEEAEAC                                                                        
D201613162907AACDEEDBACBCCECDBDAEACBCDABD                                                                        
D201713162034BACCEEDEAEBCCDCDCEADECACDBCD                                                                        
B201713162055BCBABBBACCECDCCBBEEBCDCEACAC                                                                        
A201613162903DBDCACEEEDBAAAEEBCDCEAEACBCD                                                                        
A201713162011DBBAACDDEDCBABCEBCDBEEEACACD                                                                        
A201713162045ABBABCCEEDBBEBDEECDCEECADBCB                                                                        
B201713162047BCBDBDBACDEEDBBCBEEBDDCEAEAC                                                                        
C201613162038BDBDABCCEEDBBDCBCDCEAEACBCBB                                                                        
C201713162043BDCBBECCDEDEBDABEDCEACACBCDC                                                                        
A201713162053AABDCCCDEDBBCBBCBCDCEAEACACA                                                                        
D201713162023EACCDBDCBABEEBCDCEABACBABDBD                                                                        
C201713162068BDCBEAEDDEDCBBCBDDCEAEABBCBD                                                                        
A201713162060DBBCCCAEEDABBBACBCDCEAEACBCE                                                                        
D201613161022BACDEEDACBBEEBCDBEAEACBCDABB                                                                        
C201713162065ADBDDACBEEDBBECBCDBEAEACBCDD                                                                        
A201713162046DBBBCCCEEDABEBEEDCDCEACACBEB                                                                        
C201713162024BDCCCCCDEEDBBEEBCECEAEACACDD                                                                        
A201713161904DBDBCECEEDEBDBCEBCDCEAEACACA                                                                        
B201713162017BCDDBDBACCDEDBAEBECBCDCEAEAC                                                                        
C201613161006BDBBCECCEEDABDEBCDCEAAACBCBE                                                                        
D201713161900AACD EDBBEBDCBCDCEAEABBC ABB                                                                        
C201613162812BDDBBACCEEDBBAEBCDAEAEACBCAA                                                                        
D201613162004DACDEEDBBEBECBCDCEAEACBCBDBB                                                                        
C201613162026BDBBDACCEEDBBCEBCDCEAEACDADC                                                                        
D201713162007AACCEEDBBDBCCBCDCEAEACBCDDBB                                                                        
B201613162043BCDD DABDDEEDBAEBDEBCDCEAEAC                                                                        
A201613162062DBBBBCDDEDBBDBEEBCDCEAEACBCD                                                                        
D201613162079AACDEEDBBDBDCBCDBEAEACBCDDBB                                                                        
A201613162030DBDBACDDEDBBCBDCBCDBEAEACACD                                                                        
A201613161031DABBACDEEDABEBCEBCDCEAEACACC                                                                        
A201713162900DBBBACDEEDBBEBECBCDCEACACBCB                                                                        
B201513162054BCDDBBABCCEEDBBBBECBCDCEAEAC                                                                        
D201713162038EBCDDEDBBEBDCBCDCEAEBCBCDDCB                                                                        
C201713162009BDBCEACDEEDEBDEBCDCEAEACACBE                                                                        
D201713162035AAECEBDCCDECEACDCEDEAABCADBD                                                                        
B201713162039BCADBBBACDDEDABEBEEBEDCEADAC                                                                        
A201713161806DBDBACCEADBBBBCEACECEAEACACB                                                                        
C201613162056BDBBBAACEEDEBDCBEDCEABECBABD                                                                        
B201713161073DADBCADEEDECDBACBCABDDCCEAAB                                                                        
D201713162022BECCEEDBBBBEEBCDCEAEACACDDBD                                                                        
A201613162059DCBCADDEEDBBDBDCBCDCEAEACBCD                                                                        
D201713162069EBCDEEDEACBAEBCDCEDEACAAADEE                                                                        
B201713162072BCBDBBBCCCEEDCBEBCCBCDCEEEAC                                                                        
B201713161047AAAECDCBCDEEDBBCBBEECDCEABAC                                                                        
D201613162046DACCEDDCBCBAEBCECEACACBCDDC                                                                         
D201713162003AACCDEDBBCBECBCDCEAEACBCDDBD                                                                        
B201713162036BCADBBBACDEEDBBCBDCBCDCEAEAC                                                                        
C201613162070BABBBACDEEDBBECBCECEAEACBCAD                                                                        
A201713162013DBBAACDEEDBBDBBCBCDCEAEACBCB                                                                        
B201713162044BCADBDBECDEEDCBCBAEBCDBEAEAC                                                                        
C201713162002BABBDACDEEDBBACBCDCEAEACACDC                                                                        
C201713162059AECBAACDDEDCBAABCDCDAEACBBDD                                                                        
B201713162028AADABDDAECEADBBEAACDBDCDAAAC 
A201713162037DEBAACCEEDCABBDCBCDCEDEACBCB                                                                        
C201713162025BDCBBBEDEEDAADEBCDCEAEACBCDB                                                                        
B201713162041BCDDBBCACDEEDBABBAEBEDCEAEAC                                                                        
A201713162018ABBCACDEEDBBCBACBCECEAEACBCD                                                                        
C201713162001BDCBBBCCEEDBBACBDACEEAACBADE                                                                        
A201613162021ECDBACCEEDBBABDCBCDAEAEACBCD                                                                        
C201713162010BDBBBADDDEDBBECECDCEAAACBCDE                                                                        
D201613162061BACCEDDCCEDDEACDCEEAACACDABD                                                                        
D201613162008AACDEEDEBABDCBCDCEAEACACDDBD                                                                        
A201713162042ABBCACCEADBBDBDEBCACEAEACBCA                                                                        
A201613162002ABDBBCDEEDABBBACBCDCEAEACBAB                                                                        
B201713162071BCDDEBAACCEBDEBCBCEBCDCEAEAC                                                                        
A201613162082DBBBACDEEAABBBBCBCDCCAEECBCB                                                                        
D201713162063BBCCEEDBBEBDCBCDCCECACAADDEB                                                                        
D201713162019BCCDEBDEACBACACDCEAEECBCDDCD                                                                        
D201713162021AACDEEDEBBBCCECDCEAAACACDDCB                                                                        
B201713162902BCDEBBAACDEEDBBABECBCDCEAEAC                                                                        
B201713162040BCDDBBBACCEEDBBCBAEBCDCEAEAC                                                                        
B201713162016BCDDBBBCCDECDBBDBDCACDCEACAC                                                                        
D201713162032BADCEEDBABBDDBEDCEAEACBDDEBB                                                                        
C201713162004BDBBCACDDEDBBDCBCDCEACACBCDD                                                                        
B201513162069ECBACBAAEDEEDDBBBAEBCDCDAEAC                                                                        
C201713162906BDBBAACDEEDABECBCDCEAEACBCBB                                                                        
C201713162049BDBBCACDEBDCBDEBCDCEAEACBCDD                                                                        
D201713162033ACCDEEDBBCACEBCDCEAEACBCBDBB                                                                        
C201613162065BECBEACDDEDCBDEBCEBEAEACBCBB                                                                        
B201713162014BCDDDBBBCCEEDABCBACBCDCEACAC                                                                        
D201613162081CADCEEDAACBDCBCDCEAEACBCDDBB                                                                        
A201713162020DBBAACDEEDBBABDEBCDCEAEACBCE                                                                        
B201713162051BADDBCBADCDCDBBCBDCBEDCCAAAC                                                                        
A201713162029DBBDACCDEDABDBEEBCDCEAEACBBD                                                                        
A201713162062DBBDACDDEDCBABDCBCDCEAEACBCB                                                                        
A201613162049ABDBACCEADBAABDEBCDCEAEACBCA                                                                        
D201713162066 ACCEEDBBDBECECDCEACACBCBDBB                                                                        
B201713162048BCBDBDBDCCEEDBBEBDABCDCEAEAC                                                                        
B201713162905ACADBBCBCCEEDBACBDCBCDCEAEAC                                                                        
A201713162067DBDAACCDEDEBCBECBCDCEAEACBCB                                                                        
B201713162050BCDDBDBAEDEEDBBEBECEEDCDAEAC                                                                        
C201713162026ADBBBACDEEDBBECBCDCEAEACBCBE                                                                        
C201713162058CDCDCCCDECDBBDEBEDCEAEACBCAE                                                                        
D201713162061CACDEEDBBEBCCBCDCEAEACBCDDBD                                                                        
A201713162803DBDAACDEEDBBBBDCBCDCEAEACBCD                                                                        
D201713162064AACCEEDBBCBEEBCDCEAEACACAACB                                                                        
C201713162031ADBDBCCCDADCBECECDCEEBACBADC  